{
  "fileName": "Counter.sol",
  "contractName": "Counter",
  "source": "// contracts/Counter.sol\npragma solidity ^0.5.0;\n\ncontract Counter {\n    uint256 public value;\n\n    function increase() public {\n      value++;\n    }\n}\n",
  "sourcePath": "contracts/Counter.sol",
  "abi": [
    {
      "constant": false,
      "inputs": [],
      "name": "increase",
      "outputs": [],
      "payable": false,
      "stateMutability": "nonpayable",
      "type": "function"
    },
    {
      "constant": true,
      "inputs": [],
      "name": "value",
      "outputs": [
        {
          "internalType": "uint256",
          "name": "",
          "type": "uint256"
        }
      ],
      "payable": false,
      "stateMutability": "view",
      "type": "function"
    }
  ],
  "bytecode": "0x6080604052348015600f57600080fd5b5060a98061001e6000396000f3fe6080604052348015600f57600080fd5b506004361060325760003560e01c80633fa4f245146037578063e8927fbc146053575b600080fd5b603d605b565b6040518082815260200191505060405180910390f35b60596061565b005b60005481565b600080815480929190600101919050555056fea265627a7a723158208f7f010f756dd17b601bbaa3ed1eb8ebec720562b4d3362243c74ce833a4f57d64736f6c63430005110032",
  "compiler": {
    "name": "solc",
    "version": "0.5.17+commit.d19bba13.Emscripten.clang",
    "optimizer": {
      "enabled": false,
      "runs": 200
    },
    "evmVersion": "petersburg"
  }
}